:0A0B79000001020203030404050555
:1002B700E4F52CF52BF52AF529C203C200C202C2C8
:1002C700011205627E087F008E0A8F0B7512087572
:1002D700131275080875091C7510087511437514F4
:1002E7000875156AEE54C070030203B8752D0075C2
:1002F7002E808E2F8F30C374A69FFF74089ECF2445
:1003070002CF3400FEE48F288E27F526F525F52445
:10031700F523F522F521AF28AE27AD26AC25AB2472
:10032700AA23A922A821C31209745033E530252432
:10033700F582E52F3523F583E0FFE52E2524F582A9
:10034700E52D3523F583EFF0E5242401F524E43585
:1003570023F523E43522F522E43521F52180B785FD
:100367002D0A852E0B74002480FF740834FFFEC30A
:10037700E5139FF513E5129EF512C3E50D9FF50DE5
:10038700E50C9EF50CC3E50F9FF50FE50E9EF50EE8
:10039700C3E5099FF509E5089EF508C3E5119FF533
:1003A70011E5109EF510C3E5159FF515E5149EF5AB
:1003B70014D2E843D82090E668E04409F090E65C60
:1003C700E0443DF0D2AFD2041206D190E680E0546B
:1003D700F7F0538EF8C2031204173001051200809C
:1003E700C2013003F21207FE50EDC203120A9F202A
:1003F700001690E682E030E704E020E1EF90E68225
:10040700E030E604E020E0E41209F8120B9780C719
:0B0B6E0090E50DE030E402C322D3222A
:1000800090E6B9E0700302013F1470030201BC2442
:10009000FE700302023F24FB700302013914700357
:1000A00002013314700302012714700302012D248E
:1000B0000560030202A3120B9940030202AF90E60F
:1000C000BBE024FE602714603824FD601114602713
:1000D00024067050E50A90E6B3F0E50B803C120B65
:1000E0006E503EE51290E6B3F0E513802DE50C90DE
:1000F000E6B3F0E50D8023E50E90E6B3F0E50F8062
:100100001990E6BAE0FF120A24AA06A9077B01EAC1
:10011000494B600DEE90E6B3F0EF90E6B4F00202CA
:10012000AF02029E02029E120B500202AF120B8B14
:100130000202AF120B830202AF120B3E0202AF1299
:100140000B9B40030202AF90E6B8E0247F601514D9
:10015000601924027063A200E43325E0FFA202E4E8
:10016000334F8041E490E740F0803F90E6BCE0549C
:100170007EFF7E00E0D394807C0040047D018002FD
:100180007D00EC4EFEED4F2479F582740B3EF58335
:10019000E493FF3395E0FEEF24A1FFEE34E68F8277
:1001A000F583E0540190E740F0E4A3F090E68AF094
:1001B00090E68B7402F00202AF02029E120B9D4089
:1001C000030202AF90E6B8E024FE6016240260034A
:1001D0000202AF90E6BAE0B40105C2000202AF022B
:1001E000029E90E6BAE0705590E6BCE0547EFF7E39
:1001F00000E0D394807C0040047D0180027D00EC0F
:100200004EFEED4F2479F582740B3EF583E493FFA7
:100210003395E0FEEF24A1FFEE34E68F82F583E014
:1002200054FEF090E6BCE05480131313541FFFE01B
:10023000540F2F90E683F0E04420F08072805F122C
:100240000B9F506B90E6B8E024FE60192402704EBC
:1002500090E6BAE0B40104D200805490E6BAE064BB
:1002600002604C803990E6BCE0547EFF7E00E0D313
:1002700094807C0040047D0180027D00EC4EFEED08
:100280004F2479F582740B3EF583E493FF3395E0B8
:10029000FEEF24A1FFEE34E68F82F583800D90E619
:1002A000A08008120A77500790E6A0E04401F09081
:0602B000E6A0E04480F02E
:0102B6002225
:03003300020B932A
:040B930053D8EF3212
:100800001201000200000040B4045C32000001024A
:1008100000010A0600020000004001000902270052
:1008200001010080320904000003FF0000000705F9
:100830000102400000070581024000000705820216
:1008400000020009022700010100803209040000B3
:1008500003FF0000000705010240000007058102B8
:10086000400000070582024000000403090422033F
:100870004D006900630072006F00740065006C0039
:10088000650063006F006D002000730072006C0053
:100890001603500065007200730065007500730058
:0808A000200064007300000059
:03004300020700B1
:03005300020700A1
:10070000020AE200020B2800020B1200020AFA00A1
:100710000209C20002098500020BA100020BA2001F
:10072000020BA300020BA400020BA500020BA60003
:10073000020BA700020BA800020BA900020BAA00E3
:10074000020BAB00020BA200020BAC00020BAD00CF
:10075000020BAE00020BAF00020BB000020BB100A7
:10076000020BB200020BA200020BA200020BA200BD
:10077000020BB300020BB400020BB500020BB60073
:10078000020BB700020BB800020BB900020BBA0053
:10079000020BBB00020BBC00020BBD00020BBE0033
:1007A000020BBF00020BC000020BC100020BC20013
:0807B000020BC300020BC400A0
:1009F80090E682E030E004E020E60B90E682E0300A
:100A0800E119E030E71590E680E04401F07F147EBC
:0C0A1800001207B890E680E054FEF022C7
:1006D10030040990E680E0440AF0800790E680E06B
:1006E1004408F07FDC7E051207B890E65D74FFF0E8
:0F06F10090E65FF05391EF90E680E054F7F0222F
:020A2400A90720
:100A2600AE14AF158F828E83A3E064037017AD01F9
:100A360019ED7001228F828E83E07C002FFDEC3E43
:080A4600FEAF0580DFE4FEFFB6
:010A4E002285
:100A9F0090E682E044C0F090E681F04387010000C9
:040AAF000000002221
:1007B8008E318F3290E600E054187012E532240131
:1007C800FFE43531C313F531EF13F532801590E6A8
:1007D80000E05418FFBF100BE53225E0F532E53193
:1007E80033F531E5321532AE31700215314E600500
:0607F800120AB380EE229C
:100AB3007400F58690FDA57C05A3E582458370F956
:010AC3002210
:1005620090E600E054E74410F0E4F58E90E60B7458
:1005720003F090E6047480F00000007402F00000C2
:10058200007404F00000007406F00000007408F02B
:10059200000000E4F000000090E6017440F090E6F4
:1005A200187405F000000090E61074A0F00000003E
:1005B20090E611F000000090E61274E0F0000000F6
:1005C20090E6137420F000000090E614F0000000A2
:1005D20090E615F000000090E602748CF000000036
:1005E20090E60374AEF0000000E490E609F000002B
:1005F2000090E6207402F0000000E490E621F00092
:10060200000090E68D04F0000000E490E671F075C1
:10061200B48B75A08053A07F90E6707480F0F5B221
:10062200E4F59075B3FF90E672F075B6FF75B13AD6
:10063200E5AB20E10990E6487482F000000043A097
:02064200802214
:100A4F0090E6017440F0E4F59075B3FF75A0805304
:100A5F00A07FFFFE0FBF00010EEF64804E70F543C5
:070A6F00A080E5A030E2FBCE
:010A7600225D
:1008A800E5A030E4047F0180027F0090E6017443F4
:1008B800F0E4FDFC0DBD00010CED64804C70F5907A
:1008C800E6047402F000000090E618740DF00000D1
:1008D8000090E61274E0F000000090E602748CF0DC
:1008E80000000090E60374AEF0000000E490E60912
:1008F800F000000090E6207402F0000000E490E6AA
:1009080021F0000000E5AB20E10990E6487482F090
:03091800000000DC
:01091B0022B9
:0A0644008E398F3A8B3B8A3C893DCA
:10064E0075A082E4F543F544C3E544953AE5439538
:10065E0039506CAB3B053DE53DAA3C7002053C14A0
:10066E00F912091CFFE4FDFCEF30E00575418A80AC
:10067E00037541828541A0EFC313FFAEA0EE30E2B9
:10068E000AE542C3134480F5428006E542C313F5E2
:10069E0042E5414401F5A00DBD00010CED64084C8E
:1006AE0070C6AB3E0540E540AA3F7002053F14F907
:1006BE00E5421209620544E544708D054380897553
:0206CE00A0800A
:0106D0002207
:1004170090E6A1E030E1030205617533017534E729
:10042700753580AB33AA34A93512091C14601F1423
:10043700602214606114700302054E1470030204F5
:10044700F82405600302055C120AC402055C120A5F
:100457004F02055C7536017537E77538C0AB330554
:1004670035E535AA347002053414F912091CFFABBF
:10047700360538E538AA377002053714F9EF12093F
:10048700621208A8AB36AA37A938EF12096290E6BC
:100497008F74020205487536017537E77538C090C5
:1004A700E68DE0753100F532AB330535E535AA3415
:1004B7007002053414F912091CFFAB360538E5380C
:1004C700AA377002053714F9EF120962E53224FFE3
:1004D700FFE53134FFFE85363E85373F853840AB33
:1004E70033AA34A93512064490E68DE090E68F8052
:1004F700507536017537E77538C090E68DE0753170
:1005070000F532E4FFFEC3EF9532EE9531502BAB89
:10051700330535E535AA347002053414F912091C80
:10052700FDAB360538E538AA377002053714F9ED03
:100537001209620FBF00010E80CC90E68DE090E6B5
:100547008FF0000000800EAB33AA34A9359000016C
:0A055700120935F5B1E490E68DF0CD
:010561002277
:0207FE00D32204
:020B9700D32267
:020B9900D32265
:080B830090E6BAE0F517D32259
:100B3E0090E740E517F0E490E68AF090E68B04F03B
:020B4E00D322B0
:080B8B0090E6BAE0F516D32252
:100B500090E740E516F0E490E68AF090E68B04F02A
:020B6000D3229E
:020B9B00D32263
:020B9D00D32261
:020B9F00D3225F
:100A770090E6B9E0242F600D04701990E604E0FFBA
:100A8700430780800890E604E0FF53077F000000DB
:070A9700EFF08002D322C33F
:010A9E002235
:100AE200C0E0C083C082D2015391EF90E65D7401F1
:080AF200F0D082D083D0E03285
:100B1200C0E0C083C0825391EF90E65D7404F0D0D0
:060B220082D083D0E03216
:100B2800C0E0C083C0825391EF90E65D7402F0D0BC
:060B380082D083D0E03200
:1009C200C0E0C083C08285100C85110D850D828523
:1009D2000C83A37402F085080E85090F850F8285AA
:1009E2000E83A37407F05391EF90E65D7410F0D07C
:0609F20082D083D0E03248
:100AFA00C0E0C083C082D2035391EF90E65D7408D0
:080B0A00F0D082D083D0E0326C
:10098500C0E0C083C08290E680E030E72085080C97
:1009950085090D850D82850C83A37402F085100EE3
:1009A50085110F850F82850E83A37407F05391EF90
:0D09B50090E65D7420F0D082D083D0E03257
:010BA1003221
:010BA2003220
:010BA300321F
:010BA400321E
:010BA500321D
:010BA600321C
:010BA700321B
:010BA800321A
:010BA9003219
:010BAA003218
:010BAB003217
:010BAC003216
:010BAD003215
:010BAE003214
:010BAF003213
:010BB0003212
:010BB1003211
:010BB2003210
:010BB300320F
:010BB400320E
:010BB500320D
:010BB600320C
:010BB700320B
:010BB800320A
:010BB9003209
:010BBA003208
:010BBB003207
:010BBC003206
:010BBD003205
:010BBE003204
:010BBF003203
:010BC0003202
:010BC1003201
:010BC2003200
:010BC30032FF
:010BC40032FE
:100AC40090E68DE014FF90E78175A084E0F59075C1
:0E0AD400A084A375A0851FEF70F275A0842288
:03000000020B628E
:0C0B6200787FE4F6D8FD7581440202B7EC
:10091C00BB010689828A83E0225002E722BBFE02D9
:09092C00E32289828A83E493220C
:10093500BB010CE58229F582E5833AF583E0225077
:1009450006E92582F8E622BBFE06E92582F8E222C1
:0D095500E58229F582E5833AF583E49322DB
:10096200BB010689828A83F0225002F722BBFE0174
:02097200F3226E
:10097400EB9FF5F0EA9E42F0E99D42F0E89C45F0D9
:010984002250
:00000001FF
