:0a0e43000001020203030404050588
:10050a00e4f52cf52bf52af529c203c200c202c272
:10051a000112066a7e097f008e0a8f0b7512097511
:10052a00131275080975091c75100975114375149c
:10053a000975156aee54c0700302060b752d007515
:10054a002e808e2f8f30c374aa9fff74099ecf24ea
:10055a0002cf3400fee48f288e27f526f525f524f0
:10056a00f523f522f521af28ae27ad26ac25ab241d
:10057a00aa23a922a821c3120ab35033e53025249d
:10058a00f582e52f3523f583e0ffe52e2524f58254
:10059a00e52d3523f583eff0e5242401f524e43530
:1005aa0023f523e43522f522e43521f52180b785a8
:1005ba002d0a852e0b74002480ff740934fffec3b4
:1005ca00e5139ff513e5129ef512c3e50d9ff50d90
:1005da00e50c9ef50cc3e50f9ff50fe50e9ef50e93
:1005ea00c3e5099ff509e5089ef508c3e5119ff5de
:1005fa0011e5109ef510c3e5159ff515e5149ef556
:10060a0014d2e843d82090e668e04409f090e65c0a
:10061a00e0443df0d2afd204120c3a90e680e054a6
:10062a00f7f0538ef8c2031200803001051202d38c
:10063a00c2013003f21208fe50edc203120d10205f
:10064a00001690e682e030e704e020e1ef90e682cf
:10065a00e030e604e020e0e4120c69120e6180c783
:0b0e380090e50de030e402c322d3225d
:1002d30090e6b9e0700302039214700302040f2442
:1002e300fe700302049224fb700302038c14700358
:1002f30002038614700302037a147003020380243a
:100303000560030204f6120e63400302050290e641
:10031300bbe024fe602714603824fd6011146027bd
:1003230024067050e50a90e6b3f0e50b803c120e0c
:1003330038503ee51290e6b3f0e513802de50c90be
:10034300e6b3f0e50d8023e50e90e6b3f0e50f800c
:100353001990e6bae0ff120c95aa06a9077b01eaf9
:10036300494b600dee90e6b3f0ef90e6b4f0020572
:10037300020204f10204f1120e09020502120e55e3
:10038300020502120e4d020502120df702050212ba
:100393000e65400302050290e6b8e0247f60151461
:1003a300601924027063a200e43325e0ffa202e493
:1003b300334f8041e490e740f0803f90e6bce05447
:1003c3007eff7e00e0d394807c0040047d018002a8
:1003d3007d00ec4efeed4f2443f582740e3ef58313
:1003e300e493ff3395e0feef24a1ffee34e68f8222
:1003f300f583e0540190e740f0e4a3f090e68af03f
:1004030090e68b7402f00205020204f1120e6740bb
:100413000302050290e6b8e024fe6016240260039e
:1004230002050290e6bae0b40105c2000205020229
:1004330004f190e6bae0705590e6bce0547eff7e8e
:1004430000e0d394807c0040047d0180027d00ecb9
:100453004efeed4f2443f582740e3ef583e493ff85
:100463003395e0feef24a1ffee34e68f82f583e0bf
:1004730054fef090e6bce05480131313541fffe0c6
:10048300540f2f90e683f0e04420f08072805f12d7
:100493000e69506b90e6b8e024fe60192402704e9a
:1004a30090e6bae0b40104d200805490e6bae06466
:1004b30002604c803990e6bce0547eff7e00e0d3be
:1004c30094807c0040047d0180027d00ec4efeedb3
:1004d3004f2443f582740e3ef583e493ff3395e096
:1004e300feef24a1ffee34e68f82f583800d90e6c4
:1004f300a08008120ce8500790e6a0e04401f090b9
:06050300e6a0e04480f0d8
:0105090022cf
:030033000207fcc5
:0407fc0053d8ef32ad
:100900001201000200000040b4045c320000010249
:1009100000010a0600020000004001000902270051
:1009200001010080320904000003ff0000000705f8
:100930000102400000070581024000000705820215
:10094000fe010009022700010100803209040000b5
:1009500003ff0000000705010240000007058102b7
:10096000400000070582024000000403090422033e
:100970004d006900630072006f00740065006c0038
:10098000650063006f006d002000730072006c0052
:100990001a03500065007200730065007500730053
:0c09a0002000520063007600720000008e
:03004300020800b0
:03005300020800a0
:10080000020d9b00020de100020dcb00020db300b2
:10081000020c0400020bc700020e6b00020e6c00fb
:10082000020e6d00020e6e00020e6f00020e7000ce
:10083000020e7100020e7200020e7300020e7400ae
:10084000020e7500020e6c00020e7600020e77009a
:10085000020e7800020e7900020e7a00020e7b0072
:10086000020e7c00020e6c00020e6c00020e6c0088
:10087000020e7d00020e7e00020e7f00020e80003e
:10088000020e8100020e8200020e8300020e84001e
:10089000020e8500020e8600020e8700020e8800fe
:1008a000020e8900020e8a00020e8b00020e8c00de
:0808b000020e8d00020e8e0005
:100c690090e682e030e004e020e60b90e682e03096
:100c7900e119e030e71590e680e04401f07f147e49
:0c0c8900001208b890e680e054fef02253
:100c3a0030040990e680e0440af0800790e680e0fc
:100c4a004408f07fdc7e051208b890e65d74fff078
:0f0c5a0090e65ff05391ef90e680e054f7f022c0
:020c9500a907ad
:100c9700ae14af158f828e83a3e064037017ad0186
:100ca70019ed7001228f828e83e07c002ffdec3ed0
:080cb700feaf0580dfe4feff43
:010cbf002212
:100d100090e682e044c0f090e681f0438701000055
:040d200000000022ad
:1008b8008e318f3290e600e054187012e532240130
:1008c800ffe43531c313f531ef13f532801590e6a7
:1008d80000e05418ffbf100be53225e0f532e53192
:1008e80033f531e5321532ae31700215314e6005ff
:0608f800120d2480ee2227
:100d24007400f58690fda57c05a3e582458370f9e2
:010d3400229c
:10066a0090e600e054e74410f0e4f58e90e60b744f
:10067a0003f090e6047480f00000007402f00000b9
:10068a00007404f00000007406f00000007408f022
:10069a00000000e4f000000090e6017440f090e6eb
:1006aa00187401f000000090e61074a0f000000039
:1006ba0090e611f000000090e61274e0f0000000ed
:1006ca0090e6137420f000000090e614f000000099
:1006da0090e615f000000090e602748cf00000002d
:1006ea0090e60374aef0000000e490e609f0000022
:1006fa000090e62004f000000090e62174fef0006d
:10070a00000090e68d7401f0000000e490e671f0bc
:10071a0075b48b75a08053a07f90e6707480f0f555
:10072a00b2e4f59075b3ff90e672f075b6ff75b155
:10073a003be5ab20e10990e6487482f000000043f3
:10074a00a0807b007a007931754a00754b02e4ff7c
:04075a00fe02075e36
:040e5d0075b13b220e
:100cc00090e6017440f0e4f59075b3ff75a0805391
:100cd000a07ffffe0fbf00010eef64804e70f54352
:070ce000a080e5a030e2fb5b
:010ce70022ea
:100ac400e5a030e4047f0180027f0090e6017443d6
:100ad400f0e4fdfc0dbd00010ced64804c70f5905c
:100ae400e6047402f000000090e6187409f00000b7
:100af4000090e61274e0f000000090e602748cf0be
:100b040000000090e60374aef0000000e490e609f3
:100b1400f000000090e62004f000000090e621744c
:100b2400fef0000000e5ab20e10990e6487482f095
:030b3400000000be
:010b3700229b
:0a09ac008e3b8f3c8b3d8a3e893f55
:1009b60075a082e4f545f546c3e546953ce54595c3
:1009c6003b506cab3d053fe53faa3e7002053e1429
:1009d600f9120a39ffe4fdfcef30e00575438a8021
:1009e600037543828543a0efc313ffaea0ee30e24a
:1009f6000ae544c3134480f5448006e544c313f571
:100a060044e5434401f5a00dbd00010ced64084c1e
:100a160070c6ab400542e542aa417002054114f991
:100a2600e544120a7f0546e546708d0545808975c1
:020a3600a0809e
:010a3800229b
:060d5a0090e679f0d205dd
:100d600090e678e020e014e020e2073005f2e02091
:0d0d7000e1ee90e678e04440f0c322d3228b
:040b3800ab07aa0657
:100b3c00e4fdfc90e678e04480f090e67974a2f055
:100b4c00d205120d60400b0dbd00010ced64034c81
:100b5c0070e1ed64034c700990e678e04440f0c31a
:100b6c0022ea120d5a40028006eb120d5a400890f0
:080b7c00e678e04440f022d3ca
:010b8400224e
:060b85008b448a458946fd
:100b8b00d204120b38400122e5481548ae477002db
:100b9b0015474e601eab440546e546aa4570020557
:100bab004514f9120a39120d5a40dd90e678e044eb
:0b0bbb0040f02290e678e04440f0d3c8
:010bc600220c
:06075e008b478a4889491f
:10076400120b3840012290e678e04480f090e6795c
:1007740074a3f0d205120d604002805390e679e034
:10078400ab47aa48a949120a7fc205120d6040026c
:10079400803de4fdfcc3ed954bec954a5040e54ba0
:1007a40024feffe54a34fffeefb5050beeb5040762
:1007b40090e678e04420f090e679e0ab47aa48a9b7
:1007c400498d828c83120a91c205120d60400890f3
:1007d400e678e04440f0220dbd00010c80b790e6bd
:1007e40078e04440f090e679e0ab47aa48a9498d07
:0707f400828c83120a91d3ed
:0107fb0022db
:040d3500af05ae0454
:100d39008b428a438944e92401f9e43afa85404a15
:100d490085414b12075ee433ab42aa43a944020a28
:010d59007f1a
:100e1b00af05ae04854047854148120b85e433ff8f
:010e2b0022a4
:1000800090e6a1e030e1030202d27535017536e752
:10009000753780ab35aa36a937120a39b409004042
:1000a000030202cd9000abf82828730200c60200bc
:1000b000cc0200d20201050201a90201590201bad3
:1000c0000202380202c7120d7d0202cd120cc002dc
:1000d00002cd7538017539e7753ac0ab350537e59e
:1000e00037aa367002053614f9120a39ffab380503
:1000f0003ae53aaa397002053914f9ef120a7f126b
:100100000ac40202b27538017539e7753ac090e643
:100110008de0753100f532ab350537e537aa36701d
:1001200002053614f9120a39ffab38053ae53aaa46
:10013000397002053914f9ef120a7fe53224ffff06
:10014000e53134fffe853840853941853a42ab358b
:10015000aa36a9371209ac80497538017539e77597
:100160003ac090e68de0753100f532e4fffec3ef52
:100170009532ee9531502bab350537e537aa367001
:1001800002053614f9120a39fdab38053ae53aaae8
:10019000397002053914f9ed120a7f0fbf00010e04
:1001a00080cc90e68de0020232ab35aa36a93790ba
:1001b0000001120a52f5b10202cd7538017539e716
:1001c000753ac0ab350537e537aa367002053614e7
:1001d000f9120a39ffab38053ae53aaa3970020537
:1001e0003914f9ef120a7fab350537e537aa3670b7
:1001f00002053614f9120a39753300f5340537e56e
:1002000037aa367002053614f9120a39feee423367
:10021000aa36a937120a39753100f532ab38aa3936
:10022000a93a853140f541ad34ac33120d35e53294
:10023000240290e68f0202c17538017539e7753adc
:10024000c0ab350537e537aa367002053614f9120a
:100250000a39ffab38053ae53aaa39700205391474
:10026000f9ef120a7fab350537e537aa367002057c
:100270003614f9120a39753300f5340537e537aa13
:10028000367002053614f9120a39feee423305378c
:10029000e537aa367002053614f9120a39753100ad
:1002a000f532aa36a937853140f541ad34ac331269
:1002b0000e1bab38aa39a93aef120a7f90e68f7469
:1002c00002f00000008006120cc0120e5de490e601
:0202d0008df0af
:0102d2002209
:0208fe00d32203
:020e6100d3229a
:020e6300d32298
:080e4d0090e6bae0f517d3228c
:100df70090e740e517f0e490e68af090e68b04f080
:020e0700d322f4
:080e550090e6bae0f516d32285
:100e090090e740e516f0e490e68af090e68b04f06e
:020e1900d322e2
:020e6500d32296
:020e6700d32294
:020e6900d32292
:100ce80090e6b9e0242f600d04701990e604e0ff47
:100cf800430780800890e604e0ff53077f00000068
:070d0800eff08002d322c3cb
:010d0f0022c1
:100d9b00c0e0c083c082d2015391ef90e65d740135
:080dab00f0d082d083d0e032c9
:100dcb00c0e0c083c0825391ef90e65d7404f0d015
:060ddb0082d083d0e0325b
:100de100c0e0c083c0825391ef90e65d7402f0d001
:060df10082d083d0e03245
:100c0400c0e0c083c08285100c85110d850d8285de
:100c14000c83a37402f085080e85090f850f828565
:100c24000e83a37407f05391ef90e65d7410f0d037
:060c340082d083d0e03203
:100db300c0e0c083c082d2035391ef90e65d740814
:080dc300f0d082d083d0e032b1
:100bc700c0e0c083c08290e680e030e72085080c53
:100bd70085090d850d82850c83a37402f085100e9f
:100be70085110f850f82850e83a37407f05391ef4c
:0d0bf70090e65d7420f0d082d083d0e03213
:010e6b003254
:010e6c003253
:010e6d003252
:010e6e003251
:010e6f003250
:010e7000324f
:010e7100324e
:010e7200324d
:010e7300324c
:010e7400324b
:010e7500324a
:010e76003249
:010e77003248
:010e78003247
:010e79003246
:010e7a003245
:010e7b003244
:010e7c003243
:010e7d003242
:010e7e003241
:010e7f003240
:010e8000323f
:010e8100323e
:010e8200323d
:010e8300323c
:010e8400323b
:010e8500323a
:010e86003239
:010e87003238
:010e88003237
:010e89003236
:010e8a003235
:010e8b003234
:010e8c003233
:010e8d003232
:010e8e003231
:100d7d0090e68de014ff90e78175a084e0f5907505
:0e0d8d00a084a375a0851fef70f275a08422cc
:03000000020e2cc1
:0c0e2c00787fe4f6d8fd75814b02050ac2
:100a3900bb010689828a83e0225002e722bbfe02bb
:090a4900e32289828a83e49322ee
:100a5200bb010ce58229f582e5833af583e0225059
:100a620006e92582f8e622bbfe06e92582f8e222a3
:0d0a7200e58229f582e5833af583e49322bd
:100a7f00bb010689828a83f0225002f722bbfe0156
:020a8f00f32250
:100a9100f8bb010de58229f582e5833af583e8f09b
:100aa100225006e92582c8f622bbfe05e92582c847
:020ab100f2222f
:100ab300eb9ff5f0ea9e42f0e99d42f0e89c45f099
:010ac3002210
:00000001FF
